{
  "contractName": "MoneyManagement",
  "abi": [
    {
      "constant": true,
      "inputs": [],
      "name": "owner",
      "outputs": [
        {
          "name": "",
          "type": "address"
        }
      ],
      "payable": false,
      "stateMutability": "view",
      "type": "function"
    },
    {
      "constant": true,
      "inputs": [
        {
          "name": "",
          "type": "uint256"
        }
      ],
      "name": "locations",
      "outputs": [
        {
          "name": "name",
          "type": "string"
        },
        {
          "name": "monthlyRent",
          "type": "uint256"
        },
        {
          "name": "tenant",
          "type": "address"
        },
        {
          "name": "ownerSigned",
          "type": "bool"
        },
        {
          "name": "tenantSigned",
          "type": "bool"
        },
        {
          "name": "lastPaid",
          "type": "uint256"
        },
        {
          "name": "active",
          "type": "bool"
        }
      ],
      "payable": false,
      "stateMutability": "view",
      "type": "function"
    },
    {
      "inputs": [],
      "payable": false,
      "stateMutability": "nonpayable",
      "type": "constructor"
    },
    {
      "anonymous": false,
      "inputs": [
        {
          "indexed": true,
          "name": "id",
          "type": "uint256"
        },
        {
          "indexed": false,
          "name": "name",
          "type": "string"
        },
        {
          "indexed": false,
          "name": "monthlyRent",
          "type": "uint256"
        }
      ],
      "name": "LocationCreated",
      "type": "event"
    },
    {
      "anonymous": false,
      "inputs": [
        {
          "indexed": true,
          "name": "id",
          "type": "uint256"
        },
        {
          "indexed": false,
          "name": "tenant",
          "type": "address"
        }
      ],
      "name": "LocationAssigned",
      "type": "event"
    },
    {
      "anonymous": false,
      "inputs": [
        {
          "indexed": true,
          "name": "id",
          "type": "uint256"
        }
      ],
      "name": "LocationOwnerApproved",
      "type": "event"
    },
    {
      "anonymous": false,
      "inputs": [
        {
          "indexed": true,
          "name": "id",
          "type": "uint256"
        },
        {
          "indexed": false,
          "name": "tenant",
          "type": "address"
        }
      ],
      "name": "LocationTenantSigned",
      "type": "event"
    },
    {
      "anonymous": false,
      "inputs": [
        {
          "indexed": true,
          "name": "id",
          "type": "uint256"
        }
      ],
      "name": "LocationTerminated",
      "type": "event"
    },
    {
      "anonymous": false,
      "inputs": [
        {
          "indexed": true,
          "name": "id",
          "type": "uint256"
        },
        {
          "indexed": true,
          "name": "tenant",
          "type": "address"
        },
        {
          "indexed": false,
          "name": "amount",
          "type": "uint256"
        },
        {
          "indexed": false,
          "name": "timestamp",
          "type": "uint256"
        }
      ],
      "name": "RentPaid",
      "type": "event"
    },
    {
      "constant": false,
      "inputs": [
        {
          "name": "name",
          "type": "string"
        },
        {
          "name": "monthlyRent",
          "type": "uint256"
        }
      ],
      "name": "createLocation",
      "outputs": [],
      "payable": false,
      "stateMutability": "nonpayable",
      "type": "function"
    },
    {
      "constant": false,
      "inputs": [
        {
          "name": "id",
          "type": "uint256"
        },
        {
          "name": "tenant",
          "type": "address"
        }
      ],
      "name": "assignTenant",
      "outputs": [],
      "payable": false,
      "stateMutability": "nonpayable",
      "type": "function"
    },
    {
      "constant": false,
      "inputs": [
        {
          "name": "id",
          "type": "uint256"
        }
      ],
      "name": "ownerApprove",
      "outputs": [],
      "payable": false,
      "stateMutability": "nonpayable",
      "type": "function"
    },
    {
      "constant": false,
      "inputs": [
        {
          "name": "id",
          "type": "uint256"
        }
      ],
      "name": "tenantSign",
      "outputs": [],
      "payable": false,
      "stateMutability": "nonpayable",
      "type": "function"
    },
    {
      "constant": false,
      "inputs": [
        {
          "name": "id",
          "type": "uint256"
        }
      ],
      "name": "payRent",
      "outputs": [],
      "payable": true,
      "stateMutability": "payable",
      "type": "function"
    },
    {
      "constant": false,
      "inputs": [
        {
          "name": "id",
          "type": "uint256"
        }
      ],
      "name": "terminateLocation",
      "outputs": [],
      "payable": false,
      "stateMutability": "nonpayable",
      "type": "function"
    },
    {
      "constant": true,
      "inputs": [],
      "name": "getLocationCount",
      "outputs": [
        {
          "name": "",
          "type": "uint256"
        }
      ],
      "payable": false,
      "stateMutability": "view",
      "type": "function"
    },
    {
      "constant": true,
      "inputs": [
        {
          "name": "id",
          "type": "uint256"
        }
      ],
      "name": "getLocation",
      "outputs": [
        {
          "name": "",
          "type": "string"
        },
        {
          "name": "",
          "type": "uint256"
        },
        {
          "name": "",
          "type": "address"
        },
        {
          "name": "",
          "type": "bool"
        },
        {
          "name": "",
          "type": "bool"
        },
        {
          "name": "",
          "type": "uint256"
        },
        {
          "name": "",
          "type": "bool"
        }
      ],
      "payable": false,
      "stateMutability": "view",
      "type": "function"
    }
  ],
  "bytecode": "0x608060405234801561001057600080fd5b50600080546001600160a01b0319163317905561109d806100326000396000f3fe6080604052600436106100915760003560e01c80638da5cb5b116100595780638da5cb5b146102aa578063a5183e59146102db578063b9e0db3514610302578063c7ab29ff1461032c578063d9e8843f1461036557610091565b806332c03d0514610096578063551d9a17146100c25780635e01b64c146100ec5780637f7b1393146101a157806388d2a7cc14610280575b600080fd5b3480156100a257600080fd5b506100c0600480360360208110156100b957600080fd5b5035610382565b005b3480156100ce57600080fd5b506100c0600480360360208110156100e557600080fd5b503561050a565b3480156100f857600080fd5b506100c06004803603604081101561010f57600080fd5b81019060208101813564010000000081111561012a57600080fd5b82018360208201111561013c57600080fd5b8035906020019184600183028401116401000000008311171561015e57600080fd5b91908080601f016020809104026020016040519081016040528093929190818152602001838380828437600092019190915250929550509135925061060b915050565b3480156101ad57600080fd5b506101cb600480360360208110156101c457600080fd5b5035610835565b6040805160208082018990526001600160a01b038816928201929092528515156060820152841515608082015260a0810184905282151560c082015260e08082528951908201528851909182916101008301918b019080838360005b8381101561023f578181015183820152602001610227565b50505050905090810190601f16801561026c5780820380516001836020036101000a031916815260200191505b509850505050505050505060405180910390f35b34801561028c57600080fd5b506100c0600480360360208110156102a357600080fd5b5035610998565b3480156102b657600080fd5b506102bf610a8d565b604080516001600160a01b039092168252519081900360200190f35b3480156102e757600080fd5b506102f0610a9c565b60408051918252519081900360200190f35b34801561030e57600080fd5b506101cb6004803603602081101561032557600080fd5b5035610aa3565b34801561033857600080fd5b506100c06004803603604081101561034f57600080fd5b50803590602001356001600160a01b0316610b8e565b6100c06004803603602081101561037b57600080fd5b5035610cfb565b60015481106103cb5760408051600160e51b62461bcd02815260206004820152600a6024820152600160b21b69125b9d985b1a59081a5902604482015290519081900360640190fd5b6000600182815481106103da57fe5b60009182526020909120600590910201600481015490915060ff166104425760408051600160e51b62461bcd0281526020600482015260136024820152600160681b724c6f636174696f6e206e6f742061637469766502604482015290519081900360640190fd5b60028101546001600160a01b03161580610468575060028101546001600160a01b031633145b6104a657604051600160e51b62461bcd02815260040180806020018281038252602381526020018061104f6023913960400191505060405180910390fd5b600281018054600160a81b336001600160a01b03199092168217600160a81b60ff02191617909155604080519182525183917fe99d3b9ab359128053de19e260e420a8460ccbeeff2e21e7a7a23d6f298b55e6916020918190039190910190a25050565b6000546001600160a01b0316331461055c5760408051600160e51b62461bcd02815260206004820152600a6024820152600160b11b6927b7363c9037bbb732b902604482015290519081900360640190fd5b60015481106105a55760408051600160e51b62461bcd02815260206004820152600a6024820152600160b21b69125b9d985b1a59081a5902604482015290519081900360640190fd5b6000600182815481106105b457fe5b60009182526020822060026005909202019081018054600160a01b60ff021916600160a01b17905560405190925083917fb59841472c8d19e11af982cf50e57e768ce0b08708fa8143e61c9d39ecd3e6bb91a25050565b6000546001600160a01b0316331461065d5760408051600160e51b62461bcd02815260206004820152600a6024820152600160b11b6927b7363c9037bbb732b902604482015290519081900360640190fd5b610665610f7a565b506040805160e081018252838152602080820184905260009282018390526001606083018190526080830184905260a0830184905260c083018190528054808201808355919094528251805193949193859360059093027fb10e2d527612073b26eecdfd717e6a320cf44b4afac2b0732d9fcbe2b7fa0cf601926106ed928492910190610fb6565b5060208281015160018381019190915560408085015160028501805460608089015160808a01516001600160a01b03199093166001600160a01b0390951694909417600160a01b60ff021916600160a01b9415159490940293909317600160a81b60ff021916600160a81b9115159190910217905560a0860151600386015560c0909501516004909401805460ff19169415159490941790935554825180830188905283815288519381019390935287516000199190910194507faa104e70747c9781a4e132e98ca1f71883a1023b824b9da67964f2ba3dd1c02893889388939092839283019186019080838360005b838110156107f55781810151838201526020016107dd565b50505050905090810190601f1680156108225780820380516001836020036101000a031916815260200191505b50935050505060405180910390a2505050565b6060600080600080600080600180549050881061088c5760408051600160e51b62461bcd02815260206004820152600a6024820152600160b21b69125b9d985b1a59081a5902604482015290519081900360640190fd5b60006001898154811061089b57fe5b600091825260209182902060016005909202018181015460028083015460038401546004850154855460408051601f6000199a841615610100029a909a0190921695909504978801899004890281018901909452868452949750879693956001600160a01b0383169560ff600160a01b8504811696600160a81b90950481169593949116929189918301828280156109745780601f1061094957610100808354040283529160200191610974565b820191906000526020600020905b81548152906001019060200180831161095757829003601f168201915b50505050509650849450975097509750975097509750975050919395979092949650565b6000546001600160a01b031633146109ea5760408051600160e51b62461bcd02815260206004820152600a6024820152600160b11b6927b7363c9037bbb732b902604482015290519081900360640190fd5b6001548110610a335760408051600160e51b62461bcd02815260206004820152600a6024820152600160b21b69125b9d985b1a59081a5902604482015290519081900360640190fd5b600060018281548110610a4257fe5b6000918252602082206004600590920201908101805460ff1916905560405190925083917f3f4d3e5af3cca4b8c7de9b620cce999048f25d6d3342aefa25325d10e826dc4d91a25050565b6000546001600160a01b031681565b6001545b90565b60018181548110610ab057fe5b60009182526020918290206005919091020180546040805160026001841615610100026000190190931692909204601f810185900485028301850190915280825291935091839190830182828015610b495780601f10610b1e57610100808354040283529160200191610b49565b820191906000526020600020905b815481529060010190602001808311610b2c57829003601f168201915b505050600184015460028501546003860154600490960154949591946001600160a01b038216945060ff600160a01b830481169450600160a81b909204821692911687565b6000546001600160a01b03163314610be05760408051600160e51b62461bcd02815260206004820152600a6024820152600160b11b6927b7363c9037bbb732b902604482015290519081900360640190fd5b6001548210610c295760408051600160e51b62461bcd02815260206004820152600a6024820152600160b21b69125b9d985b1a59081a5902604482015290519081900360640190fd5b600060018381548110610c3857fe5b60009182526020909120600590910201600481015490915060ff16610ca05760408051600160e51b62461bcd0281526020600482015260136024820152600160681b724c6f636174696f6e206e6f742061637469766502604482015290519081900360640190fd5b6002810180546001600160a01b0384166001600160a01b03199091168117909155604080519182525184917f35b7a3019b94d121b6347389ad5f925f9cef8d7dc04f277cf076a4bcb1e2c3a7919081900360200190a2505050565b6001548110610d445760408051600160e51b62461bcd02815260206004820152600a6024820152600160b21b69125b9d985b1a59081a5902604482015290519081900360640190fd5b600060018281548110610d5357fe5b60009182526020909120600590910201600481015490915060ff16610dbb5760408051600160e51b62461bcd0281526020600482015260136024820152600160681b724c6f636174696f6e206e6f742061637469766502604482015290519081900360640190fd5b60028101546001600160a01b03163314610e1f5760408051600160e51b62461bcd02815260206004820152601c60248201527f4f6e6c792061737369676e65642074656e616e742063616e2070617900000000604482015290519081900360640190fd5b6002810154600160a01b900460ff168015610e4557506002810154600160a81b900460ff165b610e995760408051600160e51b62461bcd02815260206004820152601960248201527f436f6e7472616374206e6f742066756c6c79207369676e656400000000000000604482015290519081900360640190fd5b8060010154341015610ef55760408051600160e51b62461bcd02815260206004820152601460248201527f496e73756666696369656e74207061796d656e74000000000000000000000000604482015290519081900360640190fd5b600080546040516001600160a01b03909116913480156108fc02929091818181858888f19350505050158015610f2f573d6000803e3d6000fd5b5042600382018190556040805134815260208101929092528051339285927fe7b793c2d375aa5934e16873f97e647671990418e9fead32b65a4d41e8fb4d1d92918290030190a35050565b6040805160e081018252606080825260006020830181905292820183905281018290526080810182905260a0810182905260c081019190915290565b828054600181600116156101000203166002900490600052602060002090601f016020900481019282601f10610ff757805160ff1916838001178555611024565b82800160010185558215611024579182015b82811115611024578251825591602001919060010190611009565b50611030929150611034565b5090565b610aa091905b80821115611030576000815560010161103a56fe4c6f636174696f6e2061737369676e656420746f20616e6f746865722074656e616e74a165627a7a72305820a649ac2d3cdfb471208309ab25d84d608ecf43295a9df7617dfee6304a00534d0029",
  "source": "pragma solidity ^0.5.0;\n\ncontract MoneyManagement {\n    address payable public owner;\n\n    struct Location {\n        string name; // location name or address\n        uint monthlyRent; // in wei\n        address payable tenant; // zero if unassigned\n        bool ownerSigned; // owner has approved\n        bool tenantSigned; // tenant has signed\n        uint lastPaid; // timestamp of last payment\n        bool active;\n    }\n\n    Location[] public locations;\n\n    event LocationCreated(uint indexed id, string name, uint monthlyRent);\n    event LocationAssigned(uint indexed id, address tenant);\n    event LocationOwnerApproved(uint indexed id);\n    event LocationTenantSigned(uint indexed id, address tenant);\n    event LocationTerminated(uint indexed id);\n    event RentPaid(uint indexed id, address indexed tenant, uint amount, uint timestamp);\n\n    modifier onlyOwner() {\n        require(msg.sender == owner, \"Only owner\");\n        _;\n    }\n\n    constructor() public {\n        owner = msg.sender;\n    }\n\n    // Owner creates a new location listing\n    function createLocation(string memory name, uint monthlyRent) public onlyOwner {\n        Location memory loc = Location({name: name, monthlyRent: monthlyRent, tenant: address(0), ownerSigned: true, tenantSigned: false, lastPaid: 0, active: true});\n        locations.push(loc);\n        emit LocationCreated(locations.length - 1, name, monthlyRent);\n    }\n\n    // Owner assigns a tenant to a location (optional)\n    function assignTenant(uint id, address payable tenant) public onlyOwner {\n        require(id < locations.length, \"Invalid id\");\n        Location storage loc = locations[id];\n        require(loc.active, \"Location not active\");\n        loc.tenant = tenant;\n        emit LocationAssigned(id, tenant);\n    }\n\n    // Owner approves a location (ownerSigned true)\n    function ownerApprove(uint id) public onlyOwner {\n        require(id < locations.length, \"Invalid id\");\n        Location storage loc = locations[id];\n        loc.ownerSigned = true;\n        emit LocationOwnerApproved(id);\n    }\n\n    // Tenant signs the contract for a location\n    function tenantSign(uint id) public {\n        require(id < locations.length, \"Invalid id\");\n        Location storage loc = locations[id];\n        require(loc.active, \"Location not active\");\n        require(loc.tenant == address(0) || loc.tenant == msg.sender, \"Location assigned to another tenant\");\n        loc.tenant = address(uint160(msg.sender));\n        loc.tenantSigned = true;\n        emit LocationTenantSigned(id, msg.sender);\n    }\n\n    // Tenant pays rent for a location (requires tenantSigned && ownerSigned)\n    function payRent(uint id) public payable {\n        require(id < locations.length, \"Invalid id\");\n        Location storage loc = locations[id];\n        require(loc.active, \"Location not active\");\n        require(loc.tenant == msg.sender, \"Only assigned tenant can pay\");\n        require(loc.ownerSigned && loc.tenantSigned, \"Contract not fully signed\");\n        require(msg.value >= loc.monthlyRent, \"Insufficient payment\");\n        // transfer to owner\n        owner.transfer(msg.value);\n        loc.lastPaid = now;\n        emit RentPaid(id, msg.sender, msg.value, now);\n    }\n\n    // Owner can terminate the location (deactivate)\n    function terminateLocation(uint id) public onlyOwner {\n        require(id < locations.length, \"Invalid id\");\n        Location storage loc = locations[id];\n        loc.active = false;\n        emit LocationTerminated(id);\n    }\n\n    // Get number of locations\n    function getLocationCount() public view returns (uint) {\n        return locations.length;\n    }\n\n    // Returns: name, monthlyRent, tenant, ownerSigned, tenantSigned, lastPaid, active\n    function getLocation(uint id) public view returns (string memory, uint, address, bool, bool, uint, bool) {\n        require(id < locations.length, \"Invalid id\");\n        Location storage loc = locations[id];\n        return (loc.name, loc.monthlyRent, loc.tenant, loc.ownerSigned, loc.tenantSigned, loc.lastPaid, loc.active);\n    }\n}\n",
  "sourcePath": "C:/Users/gsath/OneDrive/Desktop/Rental-Agreement-master/contracts/MoneyManagement.sol",
  "compiler": {
    "name": "solc",
    "version": "0.5.8+commit.23d335f2.Emscripten.clang"
  },
  "schemaVersion": "3.0.11",
  "updatedAt": "2025-11-09T20:35:43.790Z",
  "devdoc": {
    "methods": {}
  },
  "userdoc": {
    "methods": {}
  }
}